{
  "_format": "hh-sol-artifact-1",
  "contractName": "Domains",
  "sourceName": "contracts/Domains.sol",
  "abi": [
    {
      "inputs": [
        {
          "internalType": "string",
          "name": "_tld",
          "type": "string"
        }
      ],
      "stateMutability": "payable",
      "type": "constructor"
    },
    {
      "inputs": [],
      "name": "AlreadyRegistered",
      "type": "error"
    },
    {
      "inputs": [
        {
          "internalType": "string",
          "name": "name",
          "type": "string"
        }
      ],
      "name": "InvalidName",
      "type": "error"
    },
    {
      "inputs": [],
      "name": "Unauthorized",
      "type": "error"
    },
    {
      "anonymous": false,
      "inputs": [
        {
          "indexed": true,
          "internalType": "address",
          "name": "owner",
          "type": "address"
        },
        {
          "indexed": true,
          "internalType": "address",
          "name": "approved",
          "type": "address"
        },
        {
          "indexed": true,
          "internalType": "uint256",
          "name": "tokenId",
          "type": "uint256"
        }
      ],
      "name": "Approval",
      "type": "event"
    },
    {
      "anonymous": false,
      "inputs": [
        {
          "indexed": true,
          "internalType": "address",
          "name": "owner",
          "type": "address"
        },
        {
          "indexed": true,
          "internalType": "address",
          "name": "operator",
          "type": "address"
        },
        {
          "indexed": false,
          "internalType": "bool",
          "name": "approved",
          "type": "bool"
        }
      ],
      "name": "ApprovalForAll",
      "type": "event"
    },
    {
      "anonymous": false,
      "inputs": [
        {
          "indexed": true,
          "internalType": "address",
          "name": "from",
          "type": "address"
        },
        {
          "indexed": true,
          "internalType": "address",
          "name": "to",
          "type": "address"
        },
        {
          "indexed": true,
          "internalType": "uint256",
          "name": "tokenId",
          "type": "uint256"
        }
      ],
      "name": "Transfer",
      "type": "event"
    },
    {
      "inputs": [
        {
          "internalType": "address",
          "name": "to",
          "type": "address"
        },
        {
          "internalType": "uint256",
          "name": "tokenId",
          "type": "uint256"
        }
      ],
      "name": "approve",
      "outputs": [],
      "stateMutability": "nonpayable",
      "type": "function"
    },
    {
      "inputs": [
        {
          "internalType": "address",
          "name": "owner",
          "type": "address"
        }
      ],
      "name": "balanceOf",
      "outputs": [
        {
          "internalType": "uint256",
          "name": "",
          "type": "uint256"
        }
      ],
      "stateMutability": "view",
      "type": "function"
    },
    {
      "inputs": [
        {
          "internalType": "string",
          "name": "",
          "type": "string"
        }
      ],
      "name": "domains",
      "outputs": [
        {
          "internalType": "address",
          "name": "",
          "type": "address"
        }
      ],
      "stateMutability": "view",
      "type": "function"
    },
    {
      "inputs": [
        {
          "internalType": "string",
          "name": "name",
          "type": "string"
        }
      ],
      "name": "getAddress",
      "outputs": [
        {
          "internalType": "address",
          "name": "",
          "type": "address"
        }
      ],
      "stateMutability": "view",
      "type": "function"
    },
    {
      "inputs": [],
      "name": "getAllNames",
      "outputs": [
        {
          "internalType": "string[]",
          "name": "",
          "type": "string[]"
        }
      ],
      "stateMutability": "view",
      "type": "function"
    },
    {
      "inputs": [
        {
          "internalType": "uint256",
          "name": "tokenId",
          "type": "uint256"
        }
      ],
      "name": "getApproved",
      "outputs": [
        {
          "internalType": "address",
          "name": "",
          "type": "address"
        }
      ],
      "stateMutability": "view",
      "type": "function"
    },
    {
      "inputs": [
        {
          "internalType": "string",
          "name": "name",
          "type": "string"
        }
      ],
      "name": "getLink",
      "outputs": [
        {
          "internalType": "string",
          "name": "",
          "type": "string"
        }
      ],
      "stateMutability": "view",
      "type": "function"
    },
    {
      "inputs": [
        {
          "internalType": "address",
          "name": "owner",
          "type": "address"
        },
        {
          "internalType": "address",
          "name": "operator",
          "type": "address"
        }
      ],
      "name": "isApprovedForAll",
      "outputs": [
        {
          "internalType": "bool",
          "name": "",
          "type": "bool"
        }
      ],
      "stateMutability": "view",
      "type": "function"
    },
    {
      "inputs": [],
      "name": "isOwner",
      "outputs": [
        {
          "internalType": "bool",
          "name": "",
          "type": "bool"
        }
      ],
      "stateMutability": "view",
      "type": "function"
    },
    {
      "inputs": [],
      "name": "name",
      "outputs": [
        {
          "internalType": "string",
          "name": "",
          "type": "string"
        }
      ],
      "stateMutability": "view",
      "type": "function"
    },
    {
      "inputs": [
        {
          "internalType": "uint256",
          "name": "",
          "type": "uint256"
        }
      ],
      "name": "names",
      "outputs": [
        {
          "internalType": "string",
          "name": "",
          "type": "string"
        }
      ],
      "stateMutability": "view",
      "type": "function"
    },
    {
      "inputs": [],
      "name": "owner",
      "outputs": [
        {
          "internalType": "address payable",
          "name": "",
          "type": "address"
        }
      ],
      "stateMutability": "view",
      "type": "function"
    },
    {
      "inputs": [
        {
          "internalType": "uint256",
          "name": "tokenId",
          "type": "uint256"
        }
      ],
      "name": "ownerOf",
      "outputs": [
        {
          "internalType": "address",
          "name": "",
          "type": "address"
        }
      ],
      "stateMutability": "view",
      "type": "function"
    },
    {
      "inputs": [
        {
          "internalType": "string",
          "name": "name",
          "type": "string"
        }
      ],
      "name": "price",
      "outputs": [
        {
          "internalType": "uint256",
          "name": "",
          "type": "uint256"
        }
      ],
      "stateMutability": "pure",
      "type": "function"
    },
    {
      "inputs": [
        {
          "internalType": "string",
          "name": "",
          "type": "string"
        }
      ],
      "name": "records",
      "outputs": [
        {
          "internalType": "string",
          "name": "",
          "type": "string"
        }
      ],
      "stateMutability": "view",
      "type": "function"
    },
    {
      "inputs": [
        {
          "internalType": "string",
          "name": "name",
          "type": "string"
        }
      ],
      "name": "register",
      "outputs": [],
      "stateMutability": "payable",
      "type": "function"
    },
    {
      "inputs": [
        {
          "internalType": "address",
          "name": "from",
          "type": "address"
        },
        {
          "internalType": "address",
          "name": "to",
          "type": "address"
        },
        {
          "internalType": "uint256",
          "name": "tokenId",
          "type": "uint256"
        }
      ],
      "name": "safeTransferFrom",
      "outputs": [],
      "stateMutability": "nonpayable",
      "type": "function"
    },
    {
      "inputs": [
        {
          "internalType": "address",
          "name": "from",
          "type": "address"
        },
        {
          "internalType": "address",
          "name": "to",
          "type": "address"
        },
        {
          "internalType": "uint256",
          "name": "tokenId",
          "type": "uint256"
        },
        {
          "internalType": "bytes",
          "name": "_data",
          "type": "bytes"
        }
      ],
      "name": "safeTransferFrom",
      "outputs": [],
      "stateMutability": "nonpayable",
      "type": "function"
    },
    {
      "inputs": [
        {
          "internalType": "address",
          "name": "operator",
          "type": "address"
        },
        {
          "internalType": "bool",
          "name": "approved",
          "type": "bool"
        }
      ],
      "name": "setApprovalForAll",
      "outputs": [],
      "stateMutability": "nonpayable",
      "type": "function"
    },
    {
      "inputs": [
        {
          "internalType": "string",
          "name": "name",
          "type": "string"
        },
        {
          "internalType": "string",
          "name": "record",
          "type": "string"
        }
      ],
      "name": "setLink",
      "outputs": [],
      "stateMutability": "nonpayable",
      "type": "function"
    },
    {
      "inputs": [
        {
          "internalType": "bytes4",
          "name": "interfaceId",
          "type": "bytes4"
        }
      ],
      "name": "supportsInterface",
      "outputs": [
        {
          "internalType": "bool",
          "name": "",
          "type": "bool"
        }
      ],
      "stateMutability": "view",
      "type": "function"
    },
    {
      "inputs": [],
      "name": "symbol",
      "outputs": [
        {
          "internalType": "string",
          "name": "",
          "type": "string"
        }
      ],
      "stateMutability": "view",
      "type": "function"
    },
    {
      "inputs": [],
      "name": "tld",
      "outputs": [
        {
          "internalType": "string",
          "name": "",
          "type": "string"
        }
      ],
      "stateMutability": "view",
      "type": "function"
    },
    {
      "inputs": [
        {
          "internalType": "uint256",
          "name": "tokenId",
          "type": "uint256"
        }
      ],
      "name": "tokenURI",
      "outputs": [
        {
          "internalType": "string",
          "name": "",
          "type": "string"
        }
      ],
      "stateMutability": "view",
      "type": "function"
    },
    {
      "inputs": [
        {
          "internalType": "address",
          "name": "from",
          "type": "address"
        },
        {
          "internalType": "address",
          "name": "to",
          "type": "address"
        },
        {
          "internalType": "uint256",
          "name": "tokenId",
          "type": "uint256"
        }
      ],
      "name": "transferFrom",
      "outputs": [],
      "stateMutability": "nonpayable",
      "type": "function"
    },
    {
      "inputs": [
        {
          "internalType": "string",
          "name": "name",
          "type": "string"
        }
      ],
      "name": "valid",
      "outputs": [
        {
          "internalType": "bool",
          "name": "",
          "type": "bool"
        }
      ],
      "stateMutability": "pure",
      "type": "function"
    },
    {
      "inputs": [],
      "name": "withdraw",
      "outputs": [],
      "stateMutability": "nonpayable",
      "type": "function"
    }
  ],
  "bytecode": "0x6080604052604051806108a0016040528061086b81526020016200566461086b9139600a9080519060200190620000389291906200039a565b506040518060400160405280600d81526020017f3c2f746578743e3c2f7376673e00000000000000000000000000000000000000815250600b9080519060200190620000869291906200039a565b5060405162005ef138038062005ef18339818101604052810190620000ac9190620005e7565b6040518060400160405280601781526020017f4d656761627974652773204e616d6520536572766963650000000000000000008152506040518060400160405280600381526020017f4d4e5300000000000000000000000000000000000000000000000000000000008152508160009080519060200190620001309291906200039a565b508060019080519060200190620001499291906200039a565b50505033600760006101000a81548173ffffffffffffffffffffffffffffffffffffffff021916908373ffffffffffffffffffffffffffffffffffffffff1602179055508060099080519060200190620001a59291906200039a565b50620001f26040518060400160405280601881526020017f2573206e616d652073657276696365206465706c6f7965640000000000000000815250826200022860201b62001cfd1760201c565b6200022160405180606001604052806022815260200162005ecf60229139620002ce60201b62001d991760201c565b5062000759565b620002ca82826040516024016200024192919062000695565b6040516020818303038152906040527f4b5c4277000000000000000000000000000000000000000000000000000000007bffffffffffffffffffffffffffffffffffffffffffffffffffffffff19166020820180517bffffffffffffffffffffffffffffffffffffffffffffffffffffffff83818316178352505050506200037160201b60201c565b5050565b6200036e81604051602401620002e59190620006d0565b6040516020818303038152906040527f41304fac000000000000000000000000000000000000000000000000000000007bffffffffffffffffffffffffffffffffffffffffffffffffffffffff19166020820180517bffffffffffffffffffffffffffffffffffffffffffffffffffffffff83818316178352505050506200037160201b60201c565b50565b60008151905060006a636f6e736f6c652e6c6f679050602083016000808483855afa5050505050565b828054620003a89062000723565b90600052602060002090601f016020900481019282620003cc576000855562000418565b82601f10620003e757805160ff191683800117855562000418565b8280016001018555821562000418579182015b8281111562000417578251825591602001919060010190620003fa565b5b5090506200042791906200042b565b5090565b5b80821115620004465760008160009055506001016200042c565b5090565b6000604051905090565b600080fd5b600080fd5b600080fd5b600080fd5b6000601f19601f8301169050919050565b7f4e487b7100000000000000000000000000000000000000000000000000000000600052604160045260246000fd5b620004b38262000468565b810181811067ffffffffffffffff82111715620004d557620004d462000479565b5b80604052505050565b6000620004ea6200044a565b9050620004f88282620004a8565b919050565b600067ffffffffffffffff8211156200051b576200051a62000479565b5b620005268262000468565b9050602081019050919050565b60005b838110156200055357808201518184015260208101905062000536565b8381111562000563576000848401525b50505050565b6000620005806200057a84620004fd565b620004de565b9050828152602081018484840111156200059f576200059e62000463565b5b620005ac84828562000533565b509392505050565b600082601f830112620005cc57620005cb6200045e565b5b8151620005de84826020860162000569565b91505092915050565b6000602082840312156200060057620005ff62000454565b5b600082015167ffffffffffffffff81111562000621576200062062000459565b5b6200062f84828501620005b4565b91505092915050565b600081519050919050565b600082825260208201905092915050565b6000620006618262000638565b6200066d818562000643565b93506200067f81856020860162000533565b6200068a8162000468565b840191505092915050565b60006040820190508181036000830152620006b1818562000654565b90508181036020830152620006c7818462000654565b90509392505050565b60006020820190508181036000830152620006ec818462000654565b905092915050565b7f4e487b7100000000000000000000000000000000000000000000000000000000600052602260045260246000fd5b600060028204905060018216806200073c57607f821691505b60208210811415620007535762000752620006f4565b5b50919050565b614efb80620007696000396000f3fe60806040526004361061019c5760003560e01c80637476452a116100ec578063bf40fac11161008a578063e985e9c511610064578063e985e9c514610624578063f2c298be14610661578063fb825e5f1461067d578063fe2c6198146106a85761019c565b8063bf40fac114610581578063c87b56dd146105be578063db78dbe2146105fb5761019c565b806395d89b41116100c657806395d89b41146104c75780639791c097146104f2578063a22cb4651461052f578063b88d4fde146105585761019c565b80637476452a146104345780638da5cb5b146104715780638f32d59b1461049c5761019c565b80632d551432116101595780634622ab03116101335780634622ab0314610340578063541e771d1461037d5780636352211e146103ba57806370a08231146103f75761019c565b80632d551432146102d55780633ccfd60b1461030057806342842e0e146103175761019c565b806301ffc9a7146101a157806306fdde03146101de578063081812fc14610209578063095ea7b31461024657806323b872dd1461026f5780632644923514610298575b600080fd5b3480156101ad57600080fd5b506101c860048036038101906101c3919061325f565b6106e5565b6040516101d591906132a7565b60405180910390f35b3480156101ea57600080fd5b506101f36107c7565b604051610200919061335b565b60405180910390f35b34801561021557600080fd5b50610230600480360381019061022b91906133b3565b610859565b60405161023d9190613421565b60405180910390f35b34801561025257600080fd5b5061026d60048036038101906102689190613468565b6108de565b005b34801561027b57600080fd5b50610296600480360381019061029191906134a8565b6109f6565b005b3480156102a457600080fd5b506102bf60048036038101906102ba9190613630565b610a56565b6040516102cc9190613421565b60405180910390f35b3480156102e157600080fd5b506102ea610a9f565b6040516102f7919061335b565b60405180910390f35b34801561030c57600080fd5b50610315610b2d565b005b34801561032357600080fd5b5061033e600480360381019061033991906134a8565b610bf3565b005b34801561034c57600080fd5b50610367600480360381019061036291906133b3565b610c13565b604051610374919061335b565b60405180910390f35b34801561038957600080fd5b506103a4600480360381019061039f9190613630565b610cb3565b6040516103b1919061335b565b60405180910390f35b3480156103c657600080fd5b506103e160048036038101906103dc91906133b3565b610d69565b6040516103ee9190613421565b60405180910390f35b34801561040357600080fd5b5061041e60048036038101906104199190613679565b610e1b565b60405161042b91906136b5565b60405180910390f35b34801561044057600080fd5b5061045b60048036038101906104569190613730565b610ed3565b604051610468919061335b565b60405180910390f35b34801561047d57600080fd5b50610486610f86565b604051610493919061379e565b60405180910390f35b3480156104a857600080fd5b506104b1610fac565b6040516104be91906132a7565b60405180910390f35b3480156104d357600080fd5b506104dc611004565b6040516104e9919061335b565b60405180910390f35b3480156104fe57600080fd5b5061051960048036038101906105149190613730565b611096565b60405161052691906132a7565b60405180910390f35b34801561053b57600080fd5b50610556600480360381019061055191906137e5565b61114a565b005b34801561056457600080fd5b5061057f600480360381019061057a91906138c6565b611160565b005b34801561058d57600080fd5b506105a860048036038101906105a39190613730565b6111c2565b6040516105b59190613421565b60405180910390f35b3480156105ca57600080fd5b506105e560048036038101906105e091906133b3565b61120d565b6040516105f2919061335b565b60405180910390f35b34801561060757600080fd5b50610622600480360381019061061d9190613949565b61135f565b005b34801561063057600080fd5b5061064b600480360381019061064691906139ca565b6114b2565b60405161065891906132a7565b60405180910390f35b61067b60048036038101906106769190613730565b611546565b005b34801561068957600080fd5b50610692611a7c565b60405161069f9190613b16565b60405180910390f35b3480156106b457600080fd5b506106cf60048036038101906106ca9190613730565b611c5a565b6040516106dc91906136b5565b60405180910390f35b60007f80ac58cd000000000000000000000000000000000000000000000000000000007bffffffffffffffffffffffffffffffffffffffffffffffffffffffff1916827bffffffffffffffffffffffffffffffffffffffffffffffffffffffff191614806107b057507f5b5e139f000000000000000000000000000000000000000000000000000000007bffffffffffffffffffffffffffffffffffffffffffffffffffffffff1916827bffffffffffffffffffffffffffffffffffffffffffffffffffffffff1916145b806107c057506107bf82611e32565b5b9050919050565b6060600080546107d690613b67565b80601f016020809104026020016040519081016040528092919081815260200182805461080290613b67565b801561084f5780601f106108245761010080835404028352916020019161084f565b820191906000526020600020905b81548152906001019060200180831161083257829003601f168201915b5050505050905090565b600061086482611e9c565b6108a3576040517f08c379a000000000000000000000000000000000000000000000000000000000815260040161089a90613c0b565b60405180910390fd5b6004600083815260200190815260200160002060009054906101000a900473ffffffffffffffffffffffffffffffffffffffff169050919050565b60006108e982610d69565b90508073ffffffffffffffffffffffffffffffffffffffff168373ffffffffffffffffffffffffffffffffffffffff16141561095a576040517f08c379a000000000000000000000000000000000000000000000000000000000815260040161095190613c9d565b60405180910390fd5b8073ffffffffffffffffffffffffffffffffffffffff16610979611f08565b73ffffffffffffffffffffffffffffffffffffffff1614806109a857506109a7816109a2611f08565b6114b2565b5b6109e7576040517f08c379a00000000000000000000000000000000000000000000000000000000081526004016109de90613d2f565b60405180910390fd5b6109f18383611f10565b505050565b610a07610a01611f08565b82611fc9565b610a46576040517f08c379a0000000000000000000000000000000000000000000000000000000008152600401610a3d90613dc1565b60405180910390fd5b610a518383836120a7565b505050565b600c818051602081018201805184825260208301602085012081835280955050505050506000915054906101000a900473ffffffffffffffffffffffffffffffffffffffff1681565b60098054610aac90613b67565b80601f0160208091040260200160405190810160405280929190818152602001828054610ad890613b67565b8015610b255780601f10610afa57610100808354040283529160200191610b25565b820191906000526020600020905b815481529060010190602001808311610b0857829003601f168201915b505050505081565b610b35610fac565b610b3e57600080fd5b600047905060003373ffffffffffffffffffffffffffffffffffffffff1682604051610b6990613e12565b60006040518083038185875af1925050503d8060008114610ba6576040519150601f19603f3d011682016040523d82523d6000602084013e610bab565b606091505b5050905080610bef576040517f08c379a0000000000000000000000000000000000000000000000000000000008152600401610be690613e73565b60405180910390fd5b5050565b610c0e83838360405180602001604052806000815250611160565b505050565b600e6020528060005260406000206000915090508054610c3290613b67565b80601f0160208091040260200160405190810160405280929190818152602001828054610c5e90613b67565b8015610cab5780601f10610c8057610100808354040283529160200191610cab565b820191906000526020600020905b815481529060010190602001808311610c8e57829003601f168201915b505050505081565b600d818051602081018201805184825260208301602085012081835280955050505050506000915090508054610ce890613b67565b80601f0160208091040260200160405190810160405280929190818152602001828054610d1490613b67565b8015610d615780601f10610d3657610100808354040283529160200191610d61565b820191906000526020600020905b815481529060010190602001808311610d4457829003601f168201915b505050505081565b6000806002600084815260200190815260200160002060009054906101000a900473ffffffffffffffffffffffffffffffffffffffff169050600073ffffffffffffffffffffffffffffffffffffffff168173ffffffffffffffffffffffffffffffffffffffff161415610e12576040517f08c379a0000000000000000000000000000000000000000000000000000000008152600401610e0990613f05565b60405180910390fd5b80915050919050565b60008073ffffffffffffffffffffffffffffffffffffffff168273ffffffffffffffffffffffffffffffffffffffff161415610e8c576040517f08c379a0000000000000000000000000000000000000000000000000000000008152600401610e8390613f97565b60405180910390fd5b600360008373ffffffffffffffffffffffffffffffffffffffff1673ffffffffffffffffffffffffffffffffffffffff168152602001908152602001600020549050919050565b6060600d8383604051610ee7929190613fe7565b90815260200160405180910390208054610f0090613b67565b80601f0160208091040260200160405190810160405280929190818152602001828054610f2c90613b67565b8015610f795780601f10610f4e57610100808354040283529160200191610f79565b820191906000526020600020905b815481529060010190602001808311610f5c57829003601f168201915b5050505050905092915050565b600760009054906101000a900473ffffffffffffffffffffffffffffffffffffffff1681565b6000600760009054906101000a900473ffffffffffffffffffffffffffffffffffffffff1673ffffffffffffffffffffffffffffffffffffffff163373ffffffffffffffffffffffffffffffffffffffff1614905090565b60606001805461101390613b67565b80601f016020809104026020016040519081016040528092919081815260200182805461103f90613b67565b801561108c5780601f106110615761010080835404028352916020019161108c565b820191906000526020600020905b81548152906001019060200180831161106f57829003601f168201915b5050505050905090565b600060036110e784848080601f016020809104026020016040519081016040528093929190818152602001838380828437600081840152601f19601f8201169050808301925050505050505061230e565b101580156111425750600a61113f84848080601f016020809104026020016040519081016040528093929190818152602001838380828437600081840152601f19601f8201169050808301925050505050505061230e565b11155b905092915050565b61115c611155611f08565b83836124c3565b5050565b61117161116b611f08565b83611fc9565b6111b0576040517f08c379a00000000000000000000000000000000000000000000000000000000081526004016111a790613dc1565b60405180910390fd5b6111bc84848484612630565b50505050565b6000600c83836040516111d6929190613fe7565b908152602001604051809103902060009054906101000a900473ffffffffffffffffffffffffffffffffffffffff16905092915050565b606061121882611e9c565b611257576040517f08c379a000000000000000000000000000000000000000000000000000000000815260040161124e90614072565b60405180910390fd5b600060066000848152602001908152602001600020805461127790613b67565b80601f01602080910402602001604051908101604052809291908181526020018280546112a390613b67565b80156112f05780601f106112c5576101008083540402835291602001916112f0565b820191906000526020600020905b8154815290600101906020018083116112d357829003601f168201915b50505050509050600061130161268c565b905060008151141561131757819250505061135a565b60008251111561134c5780826040516020016113349291906140c3565b6040516020818303038152906040529250505061135a565b611355846126a3565b925050505b919050565b600c8484604051611371929190613fe7565b908152602001604051809103902060009054906101000a900473ffffffffffffffffffffffffffffffffffffffff1673ffffffffffffffffffffffffffffffffffffffff163373ffffffffffffffffffffffffffffffffffffffff1614611404576040517f82b4290000000000000000000000000000000000000000000000000000000000815260040160405180910390fd5b3373ffffffffffffffffffffffffffffffffffffffff16600c858560405161142d929190613fe7565b908152602001604051809103902060009054906101000a900473ffffffffffffffffffffffffffffffffffffffff1673ffffffffffffffffffffffffffffffffffffffff161461147c57600080fd5b8181600d8686604051611490929190613fe7565b908152602001604051809103902091906114ab9291906130ca565b5050505050565b6000600560008473ffffffffffffffffffffffffffffffffffffffff1673ffffffffffffffffffffffffffffffffffffffff16815260200190815260200160002060008373ffffffffffffffffffffffffffffffffffffffff1673ffffffffffffffffffffffffffffffffffffffff16815260200190815260200160002060009054906101000a900460ff16905092915050565b600073ffffffffffffffffffffffffffffffffffffffff16600c8383604051611570929190613fe7565b908152602001604051809103902060009054906101000a900473ffffffffffffffffffffffffffffffffffffffff1673ffffffffffffffffffffffffffffffffffffffff16146115bf57600080fd5b600073ffffffffffffffffffffffffffffffffffffffff16600c83836040516115e9929190613fe7565b908152602001604051809103902060009054906101000a900473ffffffffffffffffffffffffffffffffffffffff1673ffffffffffffffffffffffffffffffffffffffff1614611665576040517f3a81d6fc00000000000000000000000000000000000000000000000000000000815260040160405180910390fd5b61166f8282611096565b6116b25781816040517f7f19f48d0000000000000000000000000000000000000000000000000000000081526004016116a9929190614114565b60405180910390fd5b60006116be8383611c5a565b905080341015611703576040517f08c379a00000000000000000000000000000000000000000000000000000000081526004016116fa90614184565b60405180910390fd5b60008383600960405160200161171b93929190614284565b60405160208183030381529060405290506000600a82600b604051602001611745939291906142b5565b60405160208183030381529060405290506000611762600861274a565b905060006117b387878080601f016020809104026020016040519081016040528093929190818152602001838380828437600081840152601f19601f8201169050808301925050505050505061230e565b905060006117c082612758565b90506118b4604051806060016040528060318152602001614e1c6031913989898080601f016020809104026020016040519081016040528093929190818152602001838380828437600081840152601f19601f820116905080830192505050505050506009805461183090613b67565b80601f016020809104026020016040519081016040528092919081815260200182805461185c90613b67565b80156118a95780601f1061187e576101008083540402835291602001916118a9565b820191906000526020600020905b81548152906001019060200180831161188c57829003601f168201915b5050505050866128b9565b60006118ea866118c38761295b565b846040516020016118d693929190614462565b60405160208183030381529060405261295b565b90506000816040516020016118ff919061450b565b6040516020818303038152906040529050611931604051806060016040528060398152602001614de360399139611d99565b6119706040518060400160405280600e81526020017f46696e616c20746f6b656e55524900000000000000000000000000000000000081525082611cfd565b611991604051806060016040528060398152602001614e4d60399139611d99565b61199b3386612ad4565b6119a58582612af2565b33600c8b8b6040516119b8929190613fe7565b908152602001604051809103902060006101000a81548173ffffffffffffffffffffffffffffffffffffffff021916908373ffffffffffffffffffffffffffffffffffffffff160217905550611a436040518060400160405280601a81526020017f2573206861732072656769737465726564206120646f6d61696e00000000000081525033612b66565b611a4d6008612c02565b8989600e60008881526020019081526020016000209190611a6f9291906130ca565b5050505050505050505050565b6060611abc6040518060400160405280601f81526020017f47657474696e6720616c6c206e616d65732066726f6d20636f6e747261637400815250611d99565b6000611ac8600861274a565b67ffffffffffffffff811115611ae157611ae0613505565b5b604051908082528060200260200182016040528015611b1457816020015b6060815260200190600190039081611aff5790505b50905060005b611b24600861274a565b811015611c5257600e60008281526020019081526020016000208054611b4990613b67565b80601f0160208091040260200160405190810160405280929190818152602001828054611b7590613b67565b8015611bc25780601f10611b9757610100808354040283529160200191611bc2565b820191906000526020600020905b815481529060010190602001808311611ba557829003601f168201915b5050505050828281518110611bda57611bd961452d565b5b6020026020010181905250611c3f6040518060400160405280601781526020017f4e616d6520666f7220746f6b656e20256420697320257300000000000000000081525082848481518110611c3257611c3161452d565b5b6020026020010151612c18565b8080611c4a9061458b565b915050611b1a565b508091505090565b600080611caa84848080601f016020809104026020016040519081016040528093929190818152602001838380828437600081840152601f19601f8201169050808301925050505050505061230e565b905060008111611cb957600080fd5b6003811415611cd2576611c37937e08000915050611cf7565b6004811415611ceb57660aa87bee538000915050611cf7565b66038d7ea4c680009150505b92915050565b611d958282604051602401611d139291906145d4565b6040516020818303038152906040527f4b5c4277000000000000000000000000000000000000000000000000000000007bffffffffffffffffffffffffffffffffffffffffffffffffffffffff19166020820180517bffffffffffffffffffffffffffffffffffffffffffffffffffffffff8381831617835250505050612cb7565b5050565b611e2f81604051602401611dad919061335b565b6040516020818303038152906040527f41304fac000000000000000000000000000000000000000000000000000000007bffffffffffffffffffffffffffffffffffffffffffffffffffffffff19166020820180517bffffffffffffffffffffffffffffffffffffffffffffffffffffffff8381831617835250505050612cb7565b50565b60007f01ffc9a7000000000000000000000000000000000000000000000000000000007bffffffffffffffffffffffffffffffffffffffffffffffffffffffff1916827bffffffffffffffffffffffffffffffffffffffffffffffffffffffff1916149050919050565b60008073ffffffffffffffffffffffffffffffffffffffff166002600084815260200190815260200160002060009054906101000a900473ffffffffffffffffffffffffffffffffffffffff1673ffffffffffffffffffffffffffffffffffffffff1614159050919050565b600033905090565b816004600083815260200190815260200160002060006101000a81548173ffffffffffffffffffffffffffffffffffffffff021916908373ffffffffffffffffffffffffffffffffffffffff160217905550808273ffffffffffffffffffffffffffffffffffffffff16611f8383610d69565b73ffffffffffffffffffffffffffffffffffffffff167f8c5be1e5ebec7d5bd14f71427d1e84f3dd0314c0f7b2291e5b200ac8c7c3b92560405160405180910390a45050565b6000611fd482611e9c565b612013576040517f08c379a000000000000000000000000000000000000000000000000000000000815260040161200a9061467d565b60405180910390fd5b600061201e83610d69565b90508073ffffffffffffffffffffffffffffffffffffffff168473ffffffffffffffffffffffffffffffffffffffff16148061208d57508373ffffffffffffffffffffffffffffffffffffffff1661207584610859565b73ffffffffffffffffffffffffffffffffffffffff16145b8061209e575061209d81856114b2565b5b91505092915050565b8273ffffffffffffffffffffffffffffffffffffffff166120c782610d69565b73ffffffffffffffffffffffffffffffffffffffff161461211d576040517f08c379a00000000000000000000000000000000000000000000000000000000081526004016121149061470f565b60405180910390fd5b600073ffffffffffffffffffffffffffffffffffffffff168273ffffffffffffffffffffffffffffffffffffffff16141561218d576040517f08c379a0000000000000000000000000000000000000000000000000000000008152600401612184906147a1565b60405180910390fd5b612198838383612ce0565b6121a3600082611f10565b6001600360008573ffffffffffffffffffffffffffffffffffffffff1673ffffffffffffffffffffffffffffffffffffffff16815260200190815260200160002060008282546121f391906147c1565b925050819055506001600360008473ffffffffffffffffffffffffffffffffffffffff1673ffffffffffffffffffffffffffffffffffffffff168152602001908152602001600020600082825461224a91906147f5565b92505081905550816002600083815260200190815260200160002060006101000a81548173ffffffffffffffffffffffffffffffffffffffff021916908373ffffffffffffffffffffffffffffffffffffffff160217905550808273ffffffffffffffffffffffffffffffffffffffff168473ffffffffffffffffffffffffffffffffffffffff167fddf252ad1be2c89b69c2b068fc378daa952ba7f163c4a11628f55a4df523b3ef60405160405180910390a4612309838383612ce5565b505050565b60008060008084519050600092505b808210156124b857600085838151811061233a5761233961452d565b5b602001015160f81c60f81b9050608060f81b817effffffffffffffffffffffffffffffffffffffffffffffffffffffffffffff191610156123895760018361238291906147f5565b92506124a4565b60e060f81b817effffffffffffffffffffffffffffffffffffffffffffffffffffffffffffff191610156123cb576002836123c491906147f5565b92506124a3565b60f060f81b817effffffffffffffffffffffffffffffffffffffffffffffffffffffffffffff1916101561240d5760038361240691906147f5565b92506124a2565b60f8801b817effffffffffffffffffffffffffffffffffffffffffffffffffffffffffffff1916101561244e5760048361244791906147f5565b92506124a1565b60fc60f81b817effffffffffffffffffffffffffffffffffffffffffffffffffffffffffffff191610156124905760058361248991906147f5565b92506124a0565b60068361249d91906147f5565b92505b5b5b5b5b5082806124b09061458b565b93505061231d565b829350505050919050565b8173ffffffffffffffffffffffffffffffffffffffff168373ffffffffffffffffffffffffffffffffffffffff161415612532576040517f08c379a000000000000000000000000000000000000000000000000000000000815260040161252990614897565b60405180910390fd5b80600560008573ffffffffffffffffffffffffffffffffffffffff1673ffffffffffffffffffffffffffffffffffffffff16815260200190815260200160002060008473ffffffffffffffffffffffffffffffffffffffff1673ffffffffffffffffffffffffffffffffffffffff16815260200190815260200160002060006101000a81548160ff0219169083151502179055508173ffffffffffffffffffffffffffffffffffffffff168373ffffffffffffffffffffffffffffffffffffffff167f17307eab39ab6107e8899845ad3d59bd9653f200f220920489ca2b5937696c318360405161262391906132a7565b60405180910390a3505050565b61263b8484846120a7565b61264784848484612cea565b612686576040517f08c379a000000000000000000000000000000000000000000000000000000000815260040161267d90614929565b60405180910390fd5b50505050565b606060405180602001604052806000815250905090565b60606126ae82611e9c565b6126ed576040517f08c379a00000000000000000000000000000000000000000000000000000000081526004016126e4906149bb565b60405180910390fd5b60006126f761268c565b905060008151116127175760405180602001604052806000815250612742565b8061272184612758565b6040516020016127329291906140c3565b6040516020818303038152906040525b915050919050565b600081600001549050919050565b606060008214156127a0576040518060400160405280600181526020017f300000000000000000000000000000000000000000000000000000000000000081525090506128b4565b600082905060005b600082146127d25780806127bb9061458b565b915050600a826127cb9190614a0a565b91506127a8565b60008167ffffffffffffffff8111156127ee576127ed613505565b5b6040519080825280601f01601f1916602001820160405280156128205781602001600182028036833780820191505090505b5090505b600085146128ad5760018261283991906147c1565b9150600a856128489190614a3b565b603061285491906147f5565b60f81b81838151811061286a5761286961452d565b5b60200101907effffffffffffffffffffffffffffffffffffffffffffffffffffffffffffff1916908160001a905350600a856128a69190614a0a565b9450612824565b8093505050505b919050565b612955848484846040516024016128d39493929190614a6c565b6040516020818303038152906040527f9fd009f5000000000000000000000000000000000000000000000000000000007bffffffffffffffffffffffffffffffffffffffffffffffffffffffff19166020820180517bffffffffffffffffffffffffffffffffffffffffffffffffffffffff8381831617835250505050612cb7565b50505050565b606060008251141561297e57604051806020016040528060008152509050612acf565b6000604051806060016040528060408152602001614e8660409139905060006003600285516129ad91906147f5565b6129b79190614a0a565b60046129c39190614ac6565b905060006020826129d491906147f5565b67ffffffffffffffff8111156129ed576129ec613505565b5b6040519080825280601f01601f191660200182016040528015612a1f5781602001600182028036833780820191505090505b509050818152600183018586518101602084015b81831015612a8e576003830192508251603f8160121c168501518253600182019150603f81600c1c168501518253600182019150603f8160061c168501518253600182019150603f8116850151825360018201915050612a33565b600389510660018114612aa85760028114612ab857612ac3565b613d3d60f01b6002830352612ac3565b603d60f81b60018303525b50505050508093505050505b919050565b612aee828260405180602001604052806000815250612e72565b5050565b612afb82611e9c565b612b3a576040517f08c379a0000000000000000000000000000000000000000000000000000000008152600401612b3190614b92565b60405180910390fd5b80600660008481526020019081526020016000209080519060200190612b61929190613150565b505050565b612bfe8282604051602401612b7c929190614bb2565b6040516020818303038152906040527f319af333000000000000000000000000000000000000000000000000000000007bffffffffffffffffffffffffffffffffffffffffffffffffffffffff19166020820180517bffffffffffffffffffffffffffffffffffffffffffffffffffffffff8381831617835250505050612cb7565b5050565b6001816000016000828254019250508190555050565b612cb2838383604051602401612c3093929190614be2565b6040516020818303038152906040527fa3f5c739000000000000000000000000000000000000000000000000000000007bffffffffffffffffffffffffffffffffffffffffffffffffffffffff19166020820180517bffffffffffffffffffffffffffffffffffffffffffffffffffffffff8381831617835250505050612cb7565b505050565b60008151905060006a636f6e736f6c652e6c6f679050602083016000808483855afa5050505050565b505050565b505050565b6000612d0b8473ffffffffffffffffffffffffffffffffffffffff16612ecd565b15612e65578373ffffffffffffffffffffffffffffffffffffffff1663150b7a02612d34611f08565b8786866040518563ffffffff1660e01b8152600401612d569493929190614c7c565b6020604051808303816000875af1925050508015612d9257506040513d601f19601f82011682018060405250810190612d8f9190614cdd565b60015b612e15573d8060008114612dc2576040519150601f19603f3d011682016040523d82523d6000602084013e612dc7565b606091505b50600081511415612e0d576040517f08c379a0000000000000000000000000000000000000000000000000000000008152600401612e0490614929565b60405180910390fd5b805181602001fd5b63150b7a0260e01b7bffffffffffffffffffffffffffffffffffffffffffffffffffffffff1916817bffffffffffffffffffffffffffffffffffffffffffffffffffffffff191614915050612e6a565b600190505b949350505050565b612e7c8383612ef0565b612e896000848484612cea565b612ec8576040517f08c379a0000000000000000000000000000000000000000000000000000000008152600401612ebf90614929565b60405180910390fd5b505050565b6000808273ffffffffffffffffffffffffffffffffffffffff163b119050919050565b600073ffffffffffffffffffffffffffffffffffffffff168273ffffffffffffffffffffffffffffffffffffffff161415612f60576040517f08c379a0000000000000000000000000000000000000000000000000000000008152600401612f5790614d56565b60405180910390fd5b612f6981611e9c565b15612fa9576040517f08c379a0000000000000000000000000000000000000000000000000000000008152600401612fa090614dc2565b60405180910390fd5b612fb560008383612ce0565b6001600360008473ffffffffffffffffffffffffffffffffffffffff1673ffffffffffffffffffffffffffffffffffffffff168152602001908152602001600020600082825461300591906147f5565b92505081905550816002600083815260200190815260200160002060006101000a81548173ffffffffffffffffffffffffffffffffffffffff021916908373ffffffffffffffffffffffffffffffffffffffff160217905550808273ffffffffffffffffffffffffffffffffffffffff16600073ffffffffffffffffffffffffffffffffffffffff167fddf252ad1be2c89b69c2b068fc378daa952ba7f163c4a11628f55a4df523b3ef60405160405180910390a46130c660008383612ce5565b5050565b8280546130d690613b67565b90600052602060002090601f0160209004810192826130f8576000855561313f565b82601f1061311157803560ff191683800117855561313f565b8280016001018555821561313f579182015b8281111561313e578235825591602001919060010190613123565b5b50905061314c91906131d6565b5090565b82805461315c90613b67565b90600052602060002090601f01602090048101928261317e57600085556131c5565b82601f1061319757805160ff19168380011785556131c5565b828001600101855582156131c5579182015b828111156131c45782518255916020019190600101906131a9565b5b5090506131d291906131d6565b5090565b5b808211156131ef5760008160009055506001016131d7565b5090565b6000604051905090565b600080fd5b600080fd5b60007fffffffff0000000000000000000000000000000000000000000000000000000082169050919050565b61323c81613207565b811461324757600080fd5b50565b60008135905061325981613233565b92915050565b600060208284031215613275576132746131fd565b5b60006132838482850161324a565b91505092915050565b60008115159050919050565b6132a18161328c565b82525050565b60006020820190506132bc6000830184613298565b92915050565b600081519050919050565b600082825260208201905092915050565b60005b838110156132fc5780820151818401526020810190506132e1565b8381111561330b576000848401525b50505050565b6000601f19601f8301169050919050565b600061332d826132c2565b61333781856132cd565b93506133478185602086016132de565b61335081613311565b840191505092915050565b600060208201905081810360008301526133758184613322565b905092915050565b6000819050919050565b6133908161337d565b811461339b57600080fd5b50565b6000813590506133ad81613387565b92915050565b6000602082840312156133c9576133c86131fd565b5b60006133d78482850161339e565b91505092915050565b600073ffffffffffffffffffffffffffffffffffffffff82169050919050565b600061340b826133e0565b9050919050565b61341b81613400565b82525050565b60006020820190506134366000830184613412565b92915050565b61344581613400565b811461345057600080fd5b50565b6000813590506134628161343c565b92915050565b6000806040838503121561347f5761347e6131fd565b5b600061348d85828601613453565b925050602061349e8582860161339e565b9150509250929050565b6000806000606084860312156134c1576134c06131fd565b5b60006134cf86828701613453565b93505060206134e086828701613453565b92505060406134f18682870161339e565b9150509250925092565b600080fd5b600080fd5b7f4e487b7100000000000000000000000000000000000000000000000000000000600052604160045260246000fd5b61353d82613311565b810181811067ffffffffffffffff8211171561355c5761355b613505565b5b80604052505050565b600061356f6131f3565b905061357b8282613534565b919050565b600067ffffffffffffffff82111561359b5761359a613505565b5b6135a482613311565b9050602081019050919050565b82818337600083830152505050565b60006135d36135ce84613580565b613565565b9050828152602081018484840111156135ef576135ee613500565b5b6135fa8482856135b1565b509392505050565b600082601f830112613617576136166134fb565b5b81356136278482602086016135c0565b91505092915050565b600060208284031215613646576136456131fd565b5b600082013567ffffffffffffffff81111561366457613663613202565b5b61367084828501613602565b91505092915050565b60006020828403121561368f5761368e6131fd565b5b600061369d84828501613453565b91505092915050565b6136af8161337d565b82525050565b60006020820190506136ca60008301846136a6565b92915050565b600080fd5b600080fd5b60008083601f8401126136f0576136ef6134fb565b5b8235905067ffffffffffffffff81111561370d5761370c6136d0565b5b602083019150836001820283011115613729576137286136d5565b5b9250929050565b60008060208385031215613747576137466131fd565b5b600083013567ffffffffffffffff81111561376557613764613202565b5b613771858286016136da565b92509250509250929050565b6000613788826133e0565b9050919050565b6137988161377d565b82525050565b60006020820190506137b3600083018461378f565b92915050565b6137c28161328c565b81146137cd57600080fd5b50565b6000813590506137df816137b9565b92915050565b600080604083850312156137fc576137fb6131fd565b5b600061380a85828601613453565b925050602061381b858286016137d0565b9150509250929050565b600067ffffffffffffffff8211156138405761383f613505565b5b61384982613311565b9050602081019050919050565b600061386961386484613825565b613565565b90508281526020810184848401111561388557613884613500565b5b6138908482856135b1565b509392505050565b600082601f8301126138ad576138ac6134fb565b5b81356138bd848260208601613856565b91505092915050565b600080600080608085870312156138e0576138df6131fd565b5b60006138ee87828801613453565b94505060206138ff87828801613453565b93505060406139108782880161339e565b925050606085013567ffffffffffffffff81111561393157613930613202565b5b61393d87828801613898565b91505092959194509250565b60008060008060408587031215613963576139626131fd565b5b600085013567ffffffffffffffff81111561398157613980613202565b5b61398d878288016136da565b9450945050602085013567ffffffffffffffff8111156139b0576139af613202565b5b6139bc878288016136da565b925092505092959194509250565b600080604083850312156139e1576139e06131fd565b5b60006139ef85828601613453565b9250506020613a0085828601613453565b9150509250929050565b600081519050919050565b600082825260208201905092915050565b6000819050602082019050919050565b600082825260208201905092915050565b6000613a52826132c2565b613a5c8185613a36565b9350613a6c8185602086016132de565b613a7581613311565b840191505092915050565b6000613a8c8383613a47565b905092915050565b6000602082019050919050565b6000613aac82613a0a565b613ab68185613a15565b935083602082028501613ac885613a26565b8060005b85811015613b045784840389528151613ae58582613a80565b9450613af083613a94565b925060208a01995050600181019050613acc565b50829750879550505050505092915050565b60006020820190508181036000830152613b308184613aa1565b905092915050565b7f4e487b7100000000000000000000000000000000000000000000000000000000600052602260045260246000fd5b60006002820490506001821680613b7f57607f821691505b60208210811415613b9357613b92613b38565b5b50919050565b7f4552433732313a20617070726f76656420717565727920666f72206e6f6e657860008201527f697374656e7420746f6b656e0000000000000000000000000000000000000000602082015250565b6000613bf5602c836132cd565b9150613c0082613b99565b604082019050919050565b60006020820190508181036000830152613c2481613be8565b9050919050565b7f4552433732313a20617070726f76616c20746f2063757272656e74206f776e6560008201527f7200000000000000000000000000000000000000000000000000000000000000602082015250565b6000613c876021836132cd565b9150613c9282613c2b565b604082019050919050565b60006020820190508181036000830152613cb681613c7a565b9050919050565b7f4552433732313a20617070726f76652063616c6c6572206973206e6f74206f7760008201527f6e6572206e6f7220617070726f76656420666f7220616c6c0000000000000000602082015250565b6000613d196038836132cd565b9150613d2482613cbd565b604082019050919050565b60006020820190508181036000830152613d4881613d0c565b9050919050565b7f4552433732313a207472616e736665722063616c6c6572206973206e6f74206f60008201527f776e6572206e6f7220617070726f766564000000000000000000000000000000602082015250565b6000613dab6031836132cd565b9150613db682613d4f565b604082019050919050565b60006020820190508181036000830152613dda81613d9e565b9050919050565b600081905092915050565b50565b6000613dfc600083613de1565b9150613e0782613dec565b600082019050919050565b6000613e1d82613def565b9150819050919050565b7f4661696c656420746f207769746864726177204d617469630000000000000000600082015250565b6000613e5d6018836132cd565b9150613e6882613e27565b602082019050919050565b60006020820190508181036000830152613e8c81613e50565b9050919050565b7f4552433732313a206f776e657220717565727920666f72206e6f6e657869737460008201527f656e7420746f6b656e0000000000000000000000000000000000000000000000602082015250565b6000613eef6029836132cd565b9150613efa82613e93565b604082019050919050565b60006020820190508181036000830152613f1e81613ee2565b9050919050565b7f4552433732313a2062616c616e636520717565727920666f7220746865207a6560008201527f726f206164647265737300000000000000000000000000000000000000000000602082015250565b6000613f81602a836132cd565b9150613f8c82613f25565b604082019050919050565b60006020820190508181036000830152613fb081613f74565b9050919050565b600081905092915050565b6000613fce8385613fb7565b9350613fdb8385846135b1565b82840190509392505050565b6000613ff4828486613fc2565b91508190509392505050565b7f45524337323155524953746f726167653a2055524920717565727920666f722060008201527f6e6f6e6578697374656e7420746f6b656e000000000000000000000000000000602082015250565b600061405c6031836132cd565b915061406782614000565b604082019050919050565b6000602082019050818103600083015261408b8161404f565b9050919050565b600061409d826132c2565b6140a78185613fb7565b93506140b78185602086016132de565b80840191505092915050565b60006140cf8285614092565b91506140db8284614092565b91508190509392505050565b60006140f383856132cd565b93506141008385846135b1565b61410983613311565b840190509392505050565b6000602082019050818103600083015261412f8184866140e7565b90509392505050565b7f4e6f7420656e6f756768204d6174696320706169640000000000000000000000600082015250565b600061416e6015836132cd565b915061417982614138565b602082019050919050565b6000602082019050818103600083015261419d81614161565b9050919050565b7f2e00000000000000000000000000000000000000000000000000000000000000600082015250565b60006141da600183613fb7565b91506141e5826141a4565b600182019050919050565b60008190508160005260206000209050919050565b6000815461421281613b67565b61421c8186613fb7565b9450600182166000811461423757600181146142485761427b565b60ff1983168652818601935061427b565b614251856141f0565b60005b8381101561427357815481890152600182019150602081019050614254565b838801955050505b50505092915050565b6000614291828587613fc2565b915061429c826141cd565b91506142a88284614205565b9150819050949350505050565b60006142c18286614205565b91506142cd8285614092565b91506142d98284614205565b9150819050949350505050565b7f7b226e616d65223a202200000000000000000000000000000000000000000000600082015250565b600061431c600a83613fb7565b9150614327826142e6565b600a82019050919050565b7f222c20226465736372697074696f6e223a20224120646f6d61696e206f6e207460008201527f6865204d65676162797465206e616d652073657276696365222c2022696d616760208201527f65223a2022646174613a696d6167652f7376672b786d6c3b6261736536342c00604082015250565b60006143b4605f83613fb7565b91506143bf82614332565b605f82019050919050565b7f222c226c656e677468223a220000000000000000000000000000000000000000600082015250565b6000614400600c83613fb7565b915061440b826143ca565b600c82019050919050565b7f227d000000000000000000000000000000000000000000000000000000000000600082015250565b600061444c600283613fb7565b915061445782614416565b600282019050919050565b600061446d8261430f565b91506144798286614092565b9150614484826143a7565b91506144908285614092565b915061449b826143f3565b91506144a78284614092565b91506144b28261443f565b9150819050949350505050565b7f646174613a6170706c69636174696f6e2f6a736f6e3b6261736536342c000000600082015250565b60006144f5601d83613fb7565b9150614500826144bf565b601d82019050919050565b6000614516826144e8565b91506145228284614092565b915081905092915050565b7f4e487b7100000000000000000000000000000000000000000000000000000000600052603260045260246000fd5b7f4e487b7100000000000000000000000000000000000000000000000000000000600052601160045260246000fd5b60006145968261337d565b91507fffffffffffffffffffffffffffffffffffffffffffffffffffffffffffffffff8214156145c9576145c861455c565b5b600182019050919050565b600060408201905081810360008301526145ee8185613322565b905081810360208301526146028184613322565b90509392505050565b7f4552433732313a206f70657261746f7220717565727920666f72206e6f6e657860008201527f697374656e7420746f6b656e0000000000000000000000000000000000000000602082015250565b6000614667602c836132cd565b91506146728261460b565b604082019050919050565b600060208201905081810360008301526146968161465a565b9050919050565b7f4552433732313a207472616e736665722066726f6d20696e636f72726563742060008201527f6f776e6572000000000000000000000000000000000000000000000000000000602082015250565b60006146f96025836132cd565b91506147048261469d565b604082019050919050565b60006020820190508181036000830152614728816146ec565b9050919050565b7f4552433732313a207472616e7366657220746f20746865207a65726f2061646460008201527f7265737300000000000000000000000000000000000000000000000000000000602082015250565b600061478b6024836132cd565b91506147968261472f565b604082019050919050565b600060208201905081810360008301526147ba8161477e565b9050919050565b60006147cc8261337d565b91506147d78361337d565b9250828210156147ea576147e961455c565b5b828203905092915050565b60006148008261337d565b915061480b8361337d565b9250827fffffffffffffffffffffffffffffffffffffffffffffffffffffffffffffffff038211156148405761483f61455c565b5b828201905092915050565b7f4552433732313a20617070726f766520746f2063616c6c657200000000000000600082015250565b60006148816019836132cd565b915061488c8261484b565b602082019050919050565b600060208201905081810360008301526148b081614874565b9050919050565b7f4552433732313a207472616e7366657220746f206e6f6e20455243373231526560008201527f63656976657220696d706c656d656e7465720000000000000000000000000000602082015250565b60006149136032836132cd565b915061491e826148b7565b604082019050919050565b6000602082019050818103600083015261494281614906565b9050919050565b7f4552433732314d657461646174613a2055524920717565727920666f72206e6f60008201527f6e6578697374656e7420746f6b656e0000000000000000000000000000000000602082015250565b60006149a5602f836132cd565b91506149b082614949565b604082019050919050565b600060208201905081810360008301526149d481614998565b9050919050565b7f4e487b7100000000000000000000000000000000000000000000000000000000600052601260045260246000fd5b6000614a158261337d565b9150614a208361337d565b925082614a3057614a2f6149db565b5b828204905092915050565b6000614a468261337d565b9150614a518361337d565b925082614a6157614a606149db565b5b828206905092915050565b60006080820190508181036000830152614a868187613322565b90508181036020830152614a9a8186613322565b90508181036040830152614aae8185613322565b9050614abd60608301846136a6565b95945050505050565b6000614ad18261337d565b9150614adc8361337d565b9250817fffffffffffffffffffffffffffffffffffffffffffffffffffffffffffffffff0483118215151615614b1557614b1461455c565b5b828202905092915050565b7f45524337323155524953746f726167653a2055524920736574206f66206e6f6e60008201527f6578697374656e7420746f6b656e000000000000000000000000000000000000602082015250565b6000614b7c602e836132cd565b9150614b8782614b20565b604082019050919050565b60006020820190508181036000830152614bab81614b6f565b9050919050565b60006040820190508181036000830152614bcc8185613322565b9050614bdb6020830184613412565b9392505050565b60006060820190508181036000830152614bfc8186613322565b9050614c0b60208301856136a6565b8181036040830152614c1d8184613322565b9050949350505050565b600081519050919050565b600082825260208201905092915050565b6000614c4e82614c27565b614c588185614c32565b9350614c688185602086016132de565b614c7181613311565b840191505092915050565b6000608082019050614c916000830187613412565b614c9e6020830186613412565b614cab60408301856136a6565b8181036060830152614cbd8184614c43565b905095945050505050565b600081519050614cd781613233565b92915050565b600060208284031215614cf357614cf26131fd565b5b6000614d0184828501614cc8565b91505092915050565b7f4552433732313a206d696e7420746f20746865207a65726f2061646472657373600082015250565b6000614d406020836132cd565b9150614d4b82614d0a565b602082019050919050565b60006020820190508181036000830152614d6f81614d33565b9050919050565b7f4552433732313a20746f6b656e20616c7265616479206d696e74656400000000600082015250565b6000614dac601c836132cd565b9150614db782614d76565b602082019050919050565b60006020820190508181036000830152614ddb81614d9f565b905091905056fe0a2d2d2d2d2d2d2d2d2d2d2d2d2d2d2d2d2d2d2d2d2d2d2d2d2d2d2d2d2d2d2d2d2d2d2d2d2d2d2d2d2d2d2d2d2d2d2d2d2d2d2d2d2d2d2d2d5265676973746572696e672025732e2573206f6e2074686520636f6e7472616374207769746820746f6b656e49442025642d2d2d2d2d2d2d2d2d2d2d2d2d2d2d2d2d2d2d2d2d2d2d2d2d2d2d2d2d2d2d2d2d2d2d2d2d2d2d2d2d2d2d2d2d2d2d2d2d2d2d2d2d2d2d2d0a4142434445464748494a4b4c4d4e4f505152535455565758595a6162636465666768696a6b6c6d6e6f707172737475767778797a303132333435363738392b2fa2646970667358221220660a2ec27b2bf504179f3deb856998276b79ca99484ab8d840731b6e80a254e364736f6c634300080a00333c73766720786d6c6e733d22687474703a2f2f7777772e77332e6f72672f323030302f737667222077696474683d2232373022206865696768743d22323730222066696c6c3d226e6f6e65223e3c706174682066696c6c3d2275726c282342292220643d224d302030683237307632373048307a222f3e3c646566733e3c66696c7465722069643d22412220636f6c6f722d696e746572706f6c6174696f6e2d66696c746572733d2273524742222066696c746572556e6974733d227573657253706163654f6e55736522206865696768743d22323730222077696474683d22323730223e3c666544726f70536861646f772064783d2230222064793d22312220737464446576696174696f6e3d22322220666c6f6f642d6f7061636974793d222e323235222077696474683d223230302522206865696768743d2232303025222f3e3c2f66696c7465723e3c2f646566733e3c7061746820643d224d37322e3836332034322e393439632d2e3636382d2e3338372d312e3432362d2e35392d322e3139372d2e3539732d312e3532392e3230342d322e3139372e35396c2d31302e30383120362e3033322d362e383520332e3933342d31302e30383120362e303332632d2e3636382e3338372d312e3432362e35392d322e3139372e3539732d312e3532392d2e3230342d322e3139372d2e35396c2d382e3031332d342e37323161342e353220342e35322030203020312d312e3538392d312e363136632d2e3338342d2e3636352d2e3539342d312e3431382d2e3630382d322e313837762d392e3331632d2e3031332d2e3737352e3138352d312e3533382e3537322d322e32303861342e323520342e323520302030203120312e3632352d312e3539356c372e3838342d342e3539632e3636382d2e33383720312e3432362d2e353920322e3139372d2e353973312e3532392e32303420322e3139372e35396c372e38383420342e353961342e353220342e353220302030203120312e35383920312e363136632e3338342e3636352e35393420312e3431382e36303820322e31383776362e3033326c362e38352d342e303635762d362e303332632e3031332d2e3737352d2e3138352d312e3533382d2e3537322d322e32303861342e323520342e32352030203020302d312e3632352d312e3539354c34312e3435362032342e3539632d2e3636382d2e3338372d312e3432362d2e35392d322e3139372d2e3539732d312e3532392e3230342d322e3139372e35396c2d31342e38363420382e36353561342e323520342e32352030203020302d312e36323520312e353935632d2e3338372e36372d2e35383520312e3433342d2e35373220322e3230387631372e343431632d2e3031332e3737352e31383520312e3533382e35373220322e32303861342e323520342e323520302030203020312e36323520312e3539356c31342e38363420382e363535632e3636382e33383720312e3432362e353920322e3139372e353973312e3532392d2e32303420322e3139372d2e35396c31302e3038312d352e39303120362e38352d342e3036352031302e3038312d352e393031632e3636382d2e33383720312e3432362d2e353920322e3139372d2e353973312e3532392e32303420322e3139372e35396c372e38383420342e353961342e353220342e353220302030203120312e35383920312e363136632e3338342e3636352e35393420312e3431382e36303820322e31383776392e333131632e3031332e3737352d2e31383520312e3533382d2e35373220322e32303861342e323520342e32352030203020312d312e36323520312e3539356c2d372e38383420342e373231632d2e3636382e3338372d312e3432362e35392d322e3139372e3539732d312e3532392d2e3230342d322e3139372d2e35396c2d372e3838342d342e353961342e353220342e35322030203020312d312e3538392d312e363136632d2e3338352d2e3636352d2e3539342d312e3431382d2e3630382d322e313837762d362e3033326c2d362e383520342e30363576362e303332632d2e3031332e3737352e31383520312e3533382e35373220322e32303861342e323520342e323520302030203020312e36323520312e3539356c31342e38363420382e363535632e3636382e33383720312e3432362e353920322e3139372e353973312e3532392d2e32303420322e3139372d2e35396c31342e3836342d382e363535632e3635372d2e33393420312e3230342d2e393520312e3538392d312e363136732e3539342d312e3431382e3630392d322e3138375635352e353338632e3031332d2e3737352d2e3138352d312e3533382d2e3537322d322e32303861342e323520342e32352030203020302d312e3632352d312e3539356c2d31342e3939332d382e3738367a222066696c6c3d2223666666222f3e3c646566733e3c6c696e6561724772616469656e742069643d2242222078313d2230222079313d2230222078323d22323730222079323d2232373022206772616469656e74556e6974733d227573657253706163654f6e557365223e3c73746f702073746f702d636f6c6f723d2223636235656565222f3e3c73746f70206f66667365743d2231222073746f702d636f6c6f723d2223306364376534222073746f702d6f7061636974793d222e3939222f3e3c2f6c696e6561724772616469656e743e3c2f646566733e3c7465787420783d2233322e352220793d223233312220666f6e742d73697a653d223237222066696c6c3d2223666666222066696c7465723d2275726c282341292220666f6e742d66616d696c793d22506c7573204a616b617274612053616e732c44656a6156752053616e732c4e6f746f20436f6c6f7220456d6f6a692c4170706c6520436f6c6f7220456d6f6a692c73616e732d73657269662220666f6e742d7765696768743d22626f6c64223e54484953204953204d5920444f4d41494e5320434f4e54524143542e204e4943452e",
  "linkReferences": {},
  "deployedLinkReferences": {}
}